{
  "_format": "hh-sol-artifact-1",
  "contractName": "SHARKBABYOKEN",
  "sourceName": "contracts/sharkbaby.sol",
  "abi": [
    {
      "inputs": [],
      "stateMutability": "nonpayable",
      "type": "constructor"
    },
    {
      "anonymous": false,
      "inputs": [
        {
          "indexed": true,
          "internalType": "address",
          "name": "owner",
          "type": "address"
        },
        {
          "indexed": true,
          "internalType": "address",
          "name": "spender",
          "type": "address"
        },
        {
          "indexed": false,
          "internalType": "uint256",
          "name": "value",
          "type": "uint256"
        }
      ],
      "name": "Approval",
      "type": "event"
    },
    {
      "anonymous": false,
      "inputs": [
        {
          "indexed": false,
          "internalType": "address",
          "name": "user",
          "type": "address"
        },
        {
          "indexed": false,
          "internalType": "bool",
          "name": "isExlcude",
          "type": "bool"
        }
      ],
      "name": "ExcludeFromFee",
      "type": "event"
    },
    {
      "anonymous": false,
      "inputs": [
        {
          "indexed": true,
          "internalType": "address",
          "name": "previousOwner",
          "type": "address"
        },
        {
          "indexed": true,
          "internalType": "address",
          "name": "newOwner",
          "type": "address"
        }
      ],
      "name": "OwnershipTransferred",
      "type": "event"
    },
    {
      "anonymous": false,
      "inputs": [
        {
          "components": [
            {
              "internalType": "uint256",
              "name": "marketing",
              "type": "uint256"
            },
            {
              "internalType": "uint256",
              "name": "gameWallet",
              "type": "uint256"
            },
            {
              "internalType": "uint256",
              "name": "liquidity",
              "type": "uint256"
            },
            {
              "internalType": "uint256",
              "name": "poolfee",
              "type": "uint256"
            }
          ],
          "indexed": false,
          "internalType": "struct SHARKBABYOKEN.Fees",
          "name": "buyFees",
          "type": "tuple"
        }
      ],
      "name": "SetBuyFee",
      "type": "event"
    },
    {
      "anonymous": false,
      "inputs": [
        {
          "components": [
            {
              "internalType": "uint256",
              "name": "marketing",
              "type": "uint256"
            },
            {
              "internalType": "uint256",
              "name": "gameWallet",
              "type": "uint256"
            },
            {
              "internalType": "uint256",
              "name": "liquidity",
              "type": "uint256"
            },
            {
              "internalType": "uint256",
              "name": "poolfee",
              "type": "uint256"
            }
          ],
          "indexed": false,
          "internalType": "struct SHARKBABYOKEN.Fees",
          "name": "sellFees",
          "type": "tuple"
        }
      ],
      "name": "SetSellFee",
      "type": "event"
    },
    {
      "anonymous": false,
      "inputs": [
        {
          "indexed": false,
          "internalType": "uint256",
          "name": "tokensSwapped",
          "type": "uint256"
        },
        {
          "indexed": false,
          "internalType": "uint256",
          "name": "ethReceived",
          "type": "uint256"
        },
        {
          "indexed": false,
          "internalType": "uint256",
          "name": "tokensIntoLiqudity",
          "type": "uint256"
        }
      ],
      "name": "SwapAndLiquify",
      "type": "event"
    },
    {
      "anonymous": false,
      "inputs": [
        {
          "indexed": true,
          "internalType": "address",
          "name": "from",
          "type": "address"
        },
        {
          "indexed": true,
          "internalType": "address",
          "name": "to",
          "type": "address"
        },
        {
          "indexed": false,
          "internalType": "uint256",
          "name": "value",
          "type": "uint256"
        }
      ],
      "name": "Transfer",
      "type": "event"
    },
    {
      "inputs": [],
      "name": "_maxTxAmount",
      "outputs": [
        {
          "internalType": "uint256",
          "name": "",
          "type": "uint256"
        }
      ],
      "stateMutability": "view",
      "type": "function"
    },
    {
      "inputs": [
        {
          "internalType": "address",
          "name": "owner",
          "type": "address"
        },
        {
          "internalType": "address",
          "name": "spender",
          "type": "address"
        }
      ],
      "name": "allowance",
      "outputs": [
        {
          "internalType": "uint256",
          "name": "",
          "type": "uint256"
        }
      ],
      "stateMutability": "view",
      "type": "function"
    },
    {
      "inputs": [
        {
          "internalType": "address",
          "name": "spender",
          "type": "address"
        },
        {
          "internalType": "uint256",
          "name": "amount",
          "type": "uint256"
        }
      ],
      "name": "approve",
      "outputs": [
        {
          "internalType": "bool",
          "name": "",
          "type": "bool"
        }
      ],
      "stateMutability": "nonpayable",
      "type": "function"
    },
    {
      "inputs": [],
      "name": "babyPoolAddress",
      "outputs": [
        {
          "internalType": "address",
          "name": "",
          "type": "address"
        }
      ],
      "stateMutability": "view",
      "type": "function"
    },
    {
      "inputs": [
        {
          "internalType": "address",
          "name": "account",
          "type": "address"
        }
      ],
      "name": "balanceOf",
      "outputs": [
        {
          "internalType": "uint256",
          "name": "",
          "type": "uint256"
        }
      ],
      "stateMutability": "view",
      "type": "function"
    },
    {
      "inputs": [
        {
          "internalType": "uint256",
          "name": "amount",
          "type": "uint256"
        }
      ],
      "name": "burn",
      "outputs": [],
      "stateMutability": "nonpayable",
      "type": "function"
    },
    {
      "inputs": [],
      "name": "buyFees",
      "outputs": [
        {
          "internalType": "uint256",
          "name": "marketing",
          "type": "uint256"
        },
        {
          "internalType": "uint256",
          "name": "gameWallet",
          "type": "uint256"
        },
        {
          "internalType": "uint256",
          "name": "liquidity",
          "type": "uint256"
        },
        {
          "internalType": "uint256",
          "name": "poolfee",
          "type": "uint256"
        }
      ],
      "stateMutability": "view",
      "type": "function"
    },
    {
      "inputs": [],
      "name": "decimals",
      "outputs": [
        {
          "internalType": "uint8",
          "name": "",
          "type": "uint8"
        }
      ],
      "stateMutability": "view",
      "type": "function"
    },
    {
      "inputs": [
        {
          "internalType": "address",
          "name": "spender",
          "type": "address"
        },
        {
          "internalType": "uint256",
          "name": "subtractedValue",
          "type": "uint256"
        }
      ],
      "name": "decreaseAllowance",
      "outputs": [
        {
          "internalType": "bool",
          "name": "",
          "type": "bool"
        }
      ],
      "stateMutability": "nonpayable",
      "type": "function"
    },
    {
      "inputs": [
        {
          "internalType": "address",
          "name": "user",
          "type": "address"
        },
        {
          "internalType": "bool",
          "name": "_isExclude",
          "type": "bool"
        }
      ],
      "name": "excludeAddressFromFee",
      "outputs": [],
      "stateMutability": "nonpayable",
      "type": "function"
    },
    {
      "inputs": [],
      "name": "gameAddress",
      "outputs": [
        {
          "internalType": "address",
          "name": "",
          "type": "address"
        }
      ],
      "stateMutability": "view",
      "type": "function"
    },
    {
      "inputs": [],
      "name": "getOwner",
      "outputs": [
        {
          "internalType": "address",
          "name": "",
          "type": "address"
        }
      ],
      "stateMutability": "view",
      "type": "function"
    },
    {
      "inputs": [],
      "name": "getTotalBuyFee",
      "outputs": [
        {
          "internalType": "uint256",
          "name": "",
          "type": "uint256"
        }
      ],
      "stateMutability": "view",
      "type": "function"
    },
    {
      "inputs": [],
      "name": "getTotalSellFee",
      "outputs": [
        {
          "internalType": "uint256",
          "name": "",
          "type": "uint256"
        }
      ],
      "stateMutability": "view",
      "type": "function"
    },
    {
      "inputs": [
        {
          "internalType": "address",
          "name": "spender",
          "type": "address"
        },
        {
          "internalType": "uint256",
          "name": "addedValue",
          "type": "uint256"
        }
      ],
      "name": "increaseAllowance",
      "outputs": [
        {
          "internalType": "bool",
          "name": "",
          "type": "bool"
        }
      ],
      "stateMutability": "nonpayable",
      "type": "function"
    },
    {
      "inputs": [],
      "name": "marketingAddress",
      "outputs": [
        {
          "internalType": "address",
          "name": "",
          "type": "address"
        }
      ],
      "stateMutability": "view",
      "type": "function"
    },
    {
      "inputs": [],
      "name": "name",
      "outputs": [
        {
          "internalType": "string",
          "name": "",
          "type": "string"
        }
      ],
      "stateMutability": "view",
      "type": "function"
    },
    {
      "inputs": [],
      "name": "numTokensSellToAddToLiquidity",
      "outputs": [
        {
          "internalType": "uint256",
          "name": "",
          "type": "uint256"
        }
      ],
      "stateMutability": "view",
      "type": "function"
    },
    {
      "inputs": [],
      "name": "owner",
      "outputs": [
        {
          "internalType": "address",
          "name": "",
          "type": "address"
        }
      ],
      "stateMutability": "view",
      "type": "function"
    },
    {
      "inputs": [],
      "name": "pancakeswapRouter",
      "outputs": [
        {
          "internalType": "contract IPancakeswapRouter",
          "name": "",
          "type": "address"
        }
      ],
      "stateMutability": "view",
      "type": "function"
    },
    {
      "inputs": [],
      "name": "pancakeswapV2Pair",
      "outputs": [
        {
          "internalType": "address",
          "name": "",
          "type": "address"
        }
      ],
      "stateMutability": "view",
      "type": "function"
    },
    {
      "inputs": [],
      "name": "poolAddress",
      "outputs": [
        {
          "internalType": "address",
          "name": "",
          "type": "address"
        }
      ],
      "stateMutability": "view",
      "type": "function"
    },
    {
      "inputs": [],
      "name": "renounceOwnership",
      "outputs": [],
      "stateMutability": "nonpayable",
      "type": "function"
    },
    {
      "inputs": [],
      "name": "sellFees",
      "outputs": [
        {
          "internalType": "uint256",
          "name": "marketing",
          "type": "uint256"
        },
        {
          "internalType": "uint256",
          "name": "gameWallet",
          "type": "uint256"
        },
        {
          "internalType": "uint256",
          "name": "liquidity",
          "type": "uint256"
        },
        {
          "internalType": "uint256",
          "name": "poolfee",
          "type": "uint256"
        }
      ],
      "stateMutability": "view",
      "type": "function"
    },
    {
      "inputs": [
        {
          "internalType": "address",
          "name": "_marketingAddress",
          "type": "address"
        },
        {
          "internalType": "address",
          "name": "_gameAddress",
          "type": "address"
        },
        {
          "internalType": "address",
          "name": "_poolAddress",
          "type": "address"
        }
      ],
      "name": "setFeeAddresses",
      "outputs": [],
      "stateMutability": "nonpayable",
      "type": "function"
    },
    {
      "inputs": [
        {
          "internalType": "address",
          "name": "_RouterAddress",
          "type": "address"
        }
      ],
      "name": "setInitialAddresses",
      "outputs": [],
      "stateMutability": "nonpayable",
      "type": "function"
    },
    {
      "inputs": [
        {
          "internalType": "uint256",
          "name": "maxTxAmount",
          "type": "uint256"
        }
      ],
      "name": "setMaxTxAmount",
      "outputs": [],
      "stateMutability": "nonpayable",
      "type": "function"
    },
    {
      "inputs": [
        {
          "internalType": "uint256",
          "name": "_marketingFee",
          "type": "uint256"
        },
        {
          "internalType": "uint256",
          "name": "_gameWalletFee",
          "type": "uint256"
        },
        {
          "internalType": "uint256",
          "name": "_liquidityFee",
          "type": "uint256"
        },
        {
          "internalType": "uint256",
          "name": "_poolfee",
          "type": "uint256"
        }
      ],
      "name": "setbuyFee",
      "outputs": [],
      "stateMutability": "nonpayable",
      "type": "function"
    },
    {
      "inputs": [
        {
          "internalType": "uint256",
          "name": "_marketingFee",
          "type": "uint256"
        },
        {
          "internalType": "uint256",
          "name": "_gameWalletFee",
          "type": "uint256"
        },
        {
          "internalType": "uint256",
          "name": "_liquidityFee",
          "type": "uint256"
        },
        {
          "internalType": "uint256",
          "name": "_poolfee",
          "type": "uint256"
        }
      ],
      "name": "setsellFee",
      "outputs": [],
      "stateMutability": "nonpayable",
      "type": "function"
    },
    {
      "inputs": [],
      "name": "swapAndLiquifyEnabled",
      "outputs": [
        {
          "internalType": "bool",
          "name": "",
          "type": "bool"
        }
      ],
      "stateMutability": "view",
      "type": "function"
    },
    {
      "inputs": [],
      "name": "symbol",
      "outputs": [
        {
          "internalType": "string",
          "name": "",
          "type": "string"
        }
      ],
      "stateMutability": "view",
      "type": "function"
    },
    {
      "inputs": [],
      "name": "totalSupply",
      "outputs": [
        {
          "internalType": "uint256",
          "name": "",
          "type": "uint256"
        }
      ],
      "stateMutability": "view",
      "type": "function"
    },
    {
      "inputs": [
        {
          "internalType": "address",
          "name": "recipient",
          "type": "address"
        },
        {
          "internalType": "uint256",
          "name": "amount",
          "type": "uint256"
        }
      ],
      "name": "transfer",
      "outputs": [
        {
          "internalType": "bool",
          "name": "",
          "type": "bool"
        }
      ],
      "stateMutability": "nonpayable",
      "type": "function"
    },
    {
      "inputs": [
        {
          "internalType": "address",
          "name": "sender",
          "type": "address"
        },
        {
          "internalType": "address",
          "name": "recipient",
          "type": "address"
        },
        {
          "internalType": "uint256",
          "name": "amount",
          "type": "uint256"
        }
      ],
      "name": "transferFrom",
      "outputs": [
        {
          "internalType": "bool",
          "name": "",
          "type": "bool"
        }
      ],
      "stateMutability": "nonpayable",
      "type": "function"
    },
    {
      "inputs": [
        {
          "internalType": "address",
          "name": "newOwner",
          "type": "address"
        }
      ],
      "name": "transferOwnership",
      "outputs": [],
      "stateMutability": "nonpayable",
      "type": "function"
    },
    {
      "stateMutability": "payable",
      "type": "receive"
    }
  ],
  "bytecode": "0x6080604052600c805460ff60a81b1916600160a81b1790556c7e37be2022c0914b268000000060165569152d02c7e14af68000006017553480156200004357600080fd5b5060006200005062000209565b600080546001600160a01b0319166001600160a01b0383169081178255604051929350917f8be0079c531659141344cd1fd0a4f28419497f9722a3daafe3b4186f6b6457e0908290a35060408051808201909152600980825268736861726b6261627960b81b6020909201918252620000cc916006916200020d565b50604080518082019091526004808252635348425960e01b6020909201918252620000fa916005916200020d565b506004805460ff191660129081179091556b033b2e3c9fd0803ce800000060038190553360008181526001602052604080822084905560146011819055948590556013829055600d859055600e829055600a600f55605090945592519092917fddf252ad1be2c89b69c2b068fc378daa952ba7f163c4a11628f55a4df523b3ef91620001879190620002d2565b60405180910390a37f4033c61b7a7bda78889373d049a0bb6dd3500d8bff8ace1617cb78413102e8076011604051620001c19190620002a9565b60405180910390a17f59b16bf8c94a0fd94bd5c030ec293d45b519b7dc85a474b840ddd20e347ff43b600d604051620001fb9190620002a9565b60405180910390a1620002db565b3390565b828054600181600116156101000203166002900490600052602060002090601f016020900481019282601f106200025057805160ff191683800117855562000280565b8280016001018555821562000280579182015b828111156200028057825182559160200191906001019062000263565b506200028e92915062000292565b5090565b5b808211156200028e576000815560010162000293565b815481526001820154602082015260028201546040820152600390910154606082015260800190565b90815260200190565b611fd280620002eb6000396000f3fe6080604052600436106102085760003560e01c80637d1db4a511610118578063c5820ad0116100a0578063e0f3ccf51161006f578063e0f3ccf514610565578063e4748b9e1461058a578063ec28438a1461059f578063f2fde38b146105bf578063f5034b0a146105df5761020f565b8063c5820ad0146104fb578063d12a76881461051b578063db6754ed14610530578063dd62ed3e146105455761020f565b8063a168d873116100e7578063a168d87314610471578063a457c2d714610486578063a5ece941146104a6578063a9059cbb146104bb578063aa1ef598146104db5761020f565b80637d1db4a51461041d578063893d20e8146104325780638da5cb5b1461044757806395d89b411461045c5761020f565b8063395093511161019b5780634a74bb021161016a5780634a74bb021461039e57806352892884146103b357806370a08231146103c8578063715018a6146103e8578063799bec12146103fd5761020f565b806339509351146103295780633e3412121461034957806342966c681461036957806347cb8c04146103895761020f565b80631ebe8be8116101d75780631ebe8be8146102b057806323b872dd146102c557806328ec13ee146102e5578063313ce567146103075761020f565b806306fdde0314610214578063095ea7b31461023f5780631755ff211461026c57806318160ddd1461028e5761020f565b3661020f57005b600080fd5b34801561022057600080fd5b506102296105f4565b6040516102369190611b2a565b60405180910390f35b34801561024b57600080fd5b5061025f61025a3660046119fa565b61068a565b6040516102369190611b1f565b34801561027857600080fd5b506102816106a8565b6040516102369190611a9b565b34801561029a57600080fd5b506102a36106b7565b6040516102369190611e3a565b3480156102bc57600080fd5b506102a36106bd565b3480156102d157600080fd5b5061025f6102e0366004611989565b6106cf565b3480156102f157600080fd5b506103056103003660046118cf565b610756565b005b34801561031357600080fd5b5061031c610935565b6040516102369190611ee4565b34801561033557600080fd5b5061025f6103443660046119fa565b61093e565b34801561035557600080fd5b50610305610364366004611a6a565b61098c565b34801561037557600080fd5b50610305610384366004611a25565b610a11565b34801561039557600080fd5b506102a3610a1e565b3480156103aa57600080fd5b5061025f610a30565b3480156103bf57600080fd5b50610281610a40565b3480156103d457600080fd5b506102a36103e33660046118cf565b610a4f565b3480156103f457600080fd5b50610305610a6a565b34801561040957600080fd5b506103056104183660046119c9565b610ae9565b34801561042957600080fd5b506102a3610b80565b34801561043e57600080fd5b50610281610b86565b34801561045357600080fd5b50610281610b95565b34801561046857600080fd5b50610229610ba4565b34801561047d57600080fd5b50610281610c05565b34801561049257600080fd5b5061025f6104a13660046119fa565b610c14565b3480156104b257600080fd5b50610281610c7c565b3480156104c757600080fd5b5061025f6104d63660046119fa565b610c8b565b3480156104e757600080fd5b506103056104f636600461193f565b610c9f565b34801561050757600080fd5b50610305610516366004611a6a565b610d13565b34801561052757600080fd5b506102a3610d8a565b34801561053c57600080fd5b50610281610d90565b34801561055157600080fd5b506102a3610560366004611907565b610d9f565b34801561057157600080fd5b5061057a610dca565b6040516102369493929190611ec9565b34801561059657600080fd5b5061057a610dd9565b3480156105ab57600080fd5b506103056105ba366004611a25565b610de8565b3480156105cb57600080fd5b506103056105da3660046118cf565b610e22565b3480156105eb57600080fd5b50610281610e60565b60068054604080516020601f60026000196101006001881615020190951694909404938401819004810282018101909252828152606093909290918301828280156106805780601f1061065557610100808354040283529160200191610680565b820191906000526020600020905b81548152906001019060200180831161066357829003601f168201915b5050505050905090565b600061069e610697610e6f565b8484610e73565b5060015b92915050565b6009546001600160a01b031681565b60035490565b60145460135460125460115401010190565b60006106dc848484610f27565b61074c846106e8610e6f565b61074785604051806060016040528060288152602001611f08602891396001600160a01b038a16600090815260026020526040812090610726610e6f565b6001600160a01b03168152602081019190915260400160002054919061137c565b610e73565b5060019392505050565b61075e610e6f565b6000546001600160a01b039081169116146107945760405162461bcd60e51b815260040161078b90611cc4565b60405180910390fd5b600b80546001600160a01b0319166001600160a01b0383169081179091556040805163c45a015560e01b8152905183929163c45a0155916004808301926020929190829003018186803b1580156107ea57600080fd5b505afa1580156107fe573d6000803e3d6000fd5b505050506040513d601f19601f8201168201806040525081019061082291906118eb565b6001600160a01b031663c9c6539630836001600160a01b031663ad5c46486040518163ffffffff1660e01b815260040160206040518083038186803b15801561086a57600080fd5b505afa15801561087e573d6000803e3d6000fd5b505050506040513d601f19601f820116820180604052508101906108a291906118eb565b6040518363ffffffff1660e01b81526004016108bf929190611aaf565b602060405180830381600087803b1580156108d957600080fd5b505af11580156108ed573d6000803e3d6000fd5b505050506040513d601f19601f8201168201806040525081019061091191906118eb565b600c80546001600160a01b0319166001600160a01b03929092169190911790555050565b60045460ff1690565b600061069e61094b610e6f565b84610747856002600061095c610e6f565b6001600160a01b03908116825260208083019390935260409182016000908120918c1681529252902054906113a8565b610994610e6f565b6000546001600160a01b039081169116146109c15760405162461bcd60e51b815260040161078b90611cc4565b60118481556012849055601383905560148290556040517f4033c61b7a7bda78889373d049a0bb6dd3500d8bff8ace1617cb78413102e80791610a0391611e11565b60405180910390a150505050565b610a1b33826113d4565b50565b601054600f54600e54600d5401010190565b600c54600160a81b900460ff1681565b600c546001600160a01b031681565b6001600160a01b031660009081526001602052604090205490565b610a72610e6f565b6000546001600160a01b03908116911614610a9f5760405162461bcd60e51b815260040161078b90611cc4565b600080546040516001600160a01b03909116907f8be0079c531659141344cd1fd0a4f28419497f9722a3daafe3b4186f6b6457e0908390a3600080546001600160a01b0319169055565b610af1610e6f565b6000546001600160a01b03908116911614610b1e5760405162461bcd60e51b815260040161078b90611cc4565b6001600160a01b03821660009081526015602052604090819020805460ff1916831515179055517fd5144d2a6c8ff9b87b7a40852df5102cab2ce561c06b56cc6fe7ccf1fa7f8c2d90610b749084908490611b04565b60405180910390a15050565b60165481565b6000610b90610b95565b905090565b6000546001600160a01b031690565b60058054604080516020601f60026000196101006001881615020190951694909404938401819004810282018101909252828152606093909290918301828280156106805780601f1061065557610100808354040283529160200191610680565b6008546001600160a01b031681565b600061069e610c21610e6f565b8461074785604051806060016040528060258152602001611f566025913960026000610c4b610e6f565b6001600160a01b03908116825260208083019390935260409182016000908120918d1681529252902054919061137c565b6007546001600160a01b031681565b600061069e610c98610e6f565b8484610f27565b610ca7610e6f565b6000546001600160a01b03908116911614610cd45760405162461bcd60e51b815260040161078b90611cc4565b600780546001600160a01b039485166001600160a01b031991821617909155600880549385169382169390931790925560098054919093169116179055565b610d1b610e6f565b6000546001600160a01b03908116911614610d485760405162461bcd60e51b815260040161078b90611cc4565b600d848155600e849055600f83905560108290556040517f59b16bf8c94a0fd94bd5c030ec293d45b519b7dc85a474b840ddd20e347ff43b91610a0391611e11565b60175481565b600b546001600160a01b031681565b6001600160a01b03918216600090815260026020908152604080832093909416825291909152205490565b600d54600e54600f5460105484565b60115460125460135460145484565b610df0610e6f565b6000546001600160a01b03908116911614610e1d5760405162461bcd60e51b815260040161078b90611cc4565b601655565b610e2a610e6f565b6000546001600160a01b03908116911614610e575760405162461bcd60e51b815260040161078b90611cc4565b610a1b816114aa565b600a546001600160a01b031681565b3390565b6001600160a01b038316610e995760405162461bcd60e51b815260040161078b90611bc2565b6001600160a01b038216610ebf5760405162461bcd60e51b815260040161078b90611dcf565b6001600160a01b0380841660008181526002602090815260408083209487168084529490915290819020849055517f8c5be1e5ebec7d5bd14f71427d1e84f3dd0314c0f7b2291e5b200ac8c7c3b92590610f1a908590611e3a565b60405180910390a3505050565b6001600160a01b038316610f4d5760405162461bcd60e51b815260040161078b90611b7d565b6001600160a01b038216610f735760405162461bcd60e51b815260040161078b90611cf9565b600c546001600160a01b0384811691161480610f9c5750600c546001600160a01b038381169116145b8015610fc157506001600160a01b03831660009081526015602052604090205460ff16155b15610fe857806016541015610fe85760405162461bcd60e51b815260040161078b90611d7d565b61102581604051806060016040528060268152602001611f30602691396001600160a01b038616600090815260016020526040902054919061137c565b6001600160a01b038416600090815260016020526040812091909155819061104c30610a4f565b9050601654811061105c57506016545b6017548110801590819061107a5750600c54600160a01b900460ff16155b80156110945750600c546001600160a01b03878116911614155b80156110a95750600c54600160a81b900460ff165b156110bc5760175491506110bc8261152b565b6001600160a01b03861660009081526015602052604090205460ff166112f757600c546001600160a01b03878116911614156111f4576111146103e861110e6111036106bd565b86906103e8036115cc565b90611606565b92506111346103e861110e601160000154876115cc90919063ffffffff16565b6007546001600160a01b031660009081526001602052604090208054909101905560125461116b906103e89061110e9087906115cc565b6008546001600160a01b03166000908152600160205260409020805490910190556014546111a2906103e89061110e9087906115cc565b6009546001600160a01b03166000908152600160205260409020805490910190556013546111d9906103e89061110e9087906115cc565b306000908152600160205260409020805490910190556112f7565b600c546001600160a01b03868116911614156112f75761121b6103e861110e611103610a1e565b925061123b6103e861110e600d60000154876115cc90919063ffffffff16565b6007546001600160a01b0316600090815260016020526040902080549091019055600e54611272906103e89061110e9087906115cc565b6008546001600160a01b03166000908152600160205260409020805490910190556010546112a9906103e89061110e9087906115cc565b6009546001600160a01b0316600090815260016020526040902080549091019055600f546112e0906103e89061110e9087906115cc565b306000908152600160205260409020805490910190555b6001600160a01b03851660009081526001602052604090205461131a90846113a8565b6001600160a01b0380871660008181526001602052604090819020939093559151908816907fddf252ad1be2c89b69c2b068fc378daa952ba7f163c4a11628f55a4df523b3ef9061136c908890611e3a565b60405180910390a3505050505050565b600081848411156113a05760405162461bcd60e51b815260040161078b9190611b2a565b505050900390565b6000828201838110156113cd5760405162461bcd60e51b815260040161078b90611c4c565b9392505050565b6001600160a01b0382166113fa5760405162461bcd60e51b815260040161078b90611d3c565b61143781604051806060016040528060228152602001611f7b602291396001600160a01b038516600090815260016020526040902054919061137c565b6001600160a01b03831660009081526001602052604090205560035461145d9082611648565b6003556040516000906001600160a01b038416907fddf252ad1be2c89b69c2b068fc378daa952ba7f163c4a11628f55a4df523b3ef9061149e908590611e3a565b60405180910390a35050565b6001600160a01b0381166114d05760405162461bcd60e51b815260040161078b90611c06565b600080546040516001600160a01b03808516939216917f8be0079c531659141344cd1fd0a4f28419497f9722a3daafe3b4186f6b6457e091a3600080546001600160a01b0319166001600160a01b0392909216919091179055565b600c805460ff60a01b1916600160a01b179055600061154b826002611606565b905060006115598383611648565b9050476115658361168a565b60006115714783611648565b905061157d83826117e6565b7f17bbfb9a6069321b6ded73bd96327c9e6b7212a5cd51ff219cd61370acafb5618482856040516115b093929190611eb3565b60405180910390a15050600c805460ff60a01b19169055505050565b6000826115db575060006106a2565b828202828482816115e857fe5b04146113cd5760405162461bcd60e51b815260040161078b90611c83565b60006113cd83836040518060400160405280601a81526020017f536166654d6174683a206469766973696f6e206279207a65726f000000000000815250611898565b60006113cd83836040518060400160405280601e81526020017f536166654d6174683a207375627472616374696f6e206f766572666c6f77000081525061137c565b604080516002808252606080830184529260208301908036833701905050905030816000815181106116b857fe5b6001600160a01b03928316602091820292909201810191909152600b54604080516315ab88c960e31b81529051919093169263ad5c4648926004808301939192829003018186803b15801561170c57600080fd5b505afa158015611720573d6000803e3d6000fd5b505050506040513d601f19601f8201168201806040525081019061174491906118eb565b8160018151811061175157fe5b6001600160a01b039283166020918202929092010152600b546117779130911684610e73565b600b5460405163791ac94760e01b81526001600160a01b039091169063791ac947906117b0908590600090869030904290600401611e43565b600060405180830381600087803b1580156117ca57600080fd5b505af11580156117de573d6000803e3d6000fd5b505050505050565b600b546117fe9030906001600160a01b031684610e73565b600b546001600160a01b031663f305d71982308560008061181d610b95565b426040518863ffffffff1660e01b815260040161183f96959493929190611ac9565b6060604051808303818588803b15801561185857600080fd5b505af115801561186c573d6000803e3d6000fd5b50505050506040513d601f19601f820116820180604052508101906118919190611a3d565b5050505050565b600081836118b95760405162461bcd60e51b815260040161078b9190611b2a565b5060008385816118c557fe5b0495945050505050565b6000602082840312156118e0578081fd5b81356113cd81611ef2565b6000602082840312156118fc578081fd5b81516113cd81611ef2565b60008060408385031215611919578081fd5b823561192481611ef2565b9150602083013561193481611ef2565b809150509250929050565b600080600060608486031215611953578081fd5b833561195e81611ef2565b9250602084013561196e81611ef2565b9150604084013561197e81611ef2565b809150509250925092565b60008060006060848603121561199d578283fd5b83356119a881611ef2565b925060208401356119b881611ef2565b929592945050506040919091013590565b600080604083850312156119db578182fd5b82356119e681611ef2565b915060208301358015158114611934578182fd5b60008060408385031215611a0c578182fd5b8235611a1781611ef2565b946020939093013593505050565b600060208284031215611a36578081fd5b5035919050565b600080600060608486031215611a51578283fd5b8351925060208401519150604084015190509250925092565b60008060008060808587031215611a7f578081fd5b5050823594602084013594506040840135936060013592509050565b6001600160a01b0391909116815260200190565b6001600160a01b0392831681529116602082015260400190565b6001600160a01b039687168152602081019590955260408501939093526060840191909152909216608082015260a081019190915260c00190565b6001600160a01b039290921682521515602082015260400190565b901515815260200190565b6000602080835283518082850152825b81811015611b5657858101830151858201604001528201611b3a565b81811115611b675783604083870101525b50601f01601f1916929092016040019392505050565b60208082526025908201527f42455032303a207472616e736665722066726f6d20746865207a65726f206164604082015264647265737360d81b606082015260800190565b60208082526024908201527f42455032303a20617070726f76652066726f6d20746865207a65726f206164646040820152637265737360e01b606082015260800190565b60208082526026908201527f4f776e61626c653a206e6577206f776e657220697320746865207a65726f206160408201526564647265737360d01b606082015260800190565b6020808252601b908201527f536166654d6174683a206164646974696f6e206f766572666c6f770000000000604082015260600190565b60208082526021908201527f536166654d6174683a206d756c7469706c69636174696f6e206f766572666c6f6040820152607760f81b606082015260800190565b6020808252818101527f4f776e61626c653a2063616c6c6572206973206e6f7420746865206f776e6572604082015260600190565b60208082526023908201527f42455032303a207472616e7366657220746f20746865207a65726f206164647260408201526265737360e81b606082015260800190565b60208082526021908201527f42455032303a206275726e2066726f6d20746865207a65726f206164647265736040820152607360f81b606082015260800190565b60208082526032908201527f42455032303a207472616e7366657220616d6f756e742065786365656473206d604082015271185e081d1c985b9cd9995c88185b5bdd5b9d60721b606082015260800190565b60208082526022908201527f42455032303a20617070726f766520746f20746865207a65726f206164647265604082015261737360f01b606082015260800190565b815481526001820154602082015260028201546040820152600390910154606082015260800190565b90815260200190565b600060a082018783526020878185015260a0604085015281875180845260c0860191508289019350845b81811015611e925784516001600160a01b031683529383019391830191600101611e6d565b50506001600160a01b03969096166060850152505050608001529392505050565b9283526020830191909152604082015260600190565b93845260208401929092526040830152606082015260800190565b60ff91909116815260200190565b6001600160a01b0381168114610a1b57600080fdfe42455032303a207472616e7366657220616d6f756e74206578636565647320616c6c6f77616e636542455032303a207472616e7366657220616d6f756e7420657863656564732062616c616e636542455032303a2064656372656173656420616c6c6f77616e63652062656c6f77207a65726f42455032303a206275726e20616d6f756e7420657863656564732062616c616e6365a2646970667358221220371a9675d0966f2308bbba111fec51d19a2799e3d99f6f90ff816e51d9fc9acf64736f6c634300060c0033",
  "linkReferences": {},
  "deployedLinkReferences": {}
}