{
  "_format": "hh-sol-artifact-1",
  "contractName": "CRPF",
  "sourceName": "contracts/SCRPF.sol",
  "abi": [
    {
      "inputs": [],
      "stateMutability": "nonpayable",
      "type": "constructor"
    },
    {
      "anonymous": false,
      "inputs": [
        {
          "indexed": true,
          "internalType": "address",
          "name": "owner",
          "type": "address"
        },
        {
          "indexed": true,
          "internalType": "address",
          "name": "spender",
          "type": "address"
        },
        {
          "indexed": false,
          "internalType": "uint256",
          "name": "value",
          "type": "uint256"
        }
      ],
      "name": "Approval",
      "type": "event"
    },
    {
      "anonymous": false,
      "inputs": [
        {
          "indexed": true,
          "internalType": "address",
          "name": "previousOwner",
          "type": "address"
        },
        {
          "indexed": true,
          "internalType": "address",
          "name": "newOwner",
          "type": "address"
        }
      ],
      "name": "OwnershipTransferred",
      "type": "event"
    },
    {
      "anonymous": false,
      "inputs": [
        {
          "indexed": true,
          "internalType": "address",
          "name": "from",
          "type": "address"
        },
        {
          "indexed": true,
          "internalType": "address",
          "name": "to",
          "type": "address"
        },
        {
          "indexed": false,
          "internalType": "uint256",
          "name": "value",
          "type": "uint256"
        }
      ],
      "name": "Transfer",
      "type": "event"
    },
    {
      "inputs": [],
      "name": "_decimals",
      "outputs": [
        {
          "internalType": "uint8",
          "name": "",
          "type": "uint8"
        }
      ],
      "stateMutability": "view",
      "type": "function"
    },
    {
      "inputs": [],
      "name": "_totalSupply",
      "outputs": [
        {
          "internalType": "uint256",
          "name": "",
          "type": "uint256"
        }
      ],
      "stateMutability": "view",
      "type": "function"
    },
    {
      "inputs": [
        {
          "internalType": "address",
          "name": "who",
          "type": "address"
        },
        {
          "internalType": "address",
          "name": "spender",
          "type": "address"
        }
      ],
      "name": "allowance",
      "outputs": [
        {
          "internalType": "uint256",
          "name": "",
          "type": "uint256"
        }
      ],
      "stateMutability": "view",
      "type": "function"
    },
    {
      "inputs": [
        {
          "internalType": "address",
          "name": "spender",
          "type": "address"
        },
        {
          "internalType": "uint256",
          "name": "value",
          "type": "uint256"
        }
      ],
      "name": "approve",
      "outputs": [
        {
          "internalType": "bool",
          "name": "success",
          "type": "bool"
        }
      ],
      "stateMutability": "nonpayable",
      "type": "function"
    },
    {
      "inputs": [
        {
          "internalType": "address",
          "name": "who",
          "type": "address"
        }
      ],
      "name": "balanceOf",
      "outputs": [
        {
          "internalType": "uint256",
          "name": "",
          "type": "uint256"
        }
      ],
      "stateMutability": "view",
      "type": "function"
    },
    {
      "inputs": [],
      "name": "decimals",
      "outputs": [
        {
          "internalType": "uint8",
          "name": "",
          "type": "uint8"
        }
      ],
      "stateMutability": "view",
      "type": "function"
    },
    {
      "inputs": [],
      "name": "getOwner",
      "outputs": [
        {
          "internalType": "address",
          "name": "",
          "type": "address"
        }
      ],
      "stateMutability": "view",
      "type": "function"
    },
    {
      "inputs": [],
      "name": "name",
      "outputs": [
        {
          "internalType": "string",
          "name": "",
          "type": "string"
        }
      ],
      "stateMutability": "view",
      "type": "function"
    },
    {
      "inputs": [],
      "name": "owner",
      "outputs": [
        {
          "internalType": "address",
          "name": "",
          "type": "address"
        }
      ],
      "stateMutability": "view",
      "type": "function"
    },
    {
      "inputs": [],
      "name": "renounceOwnership",
      "outputs": [],
      "stateMutability": "nonpayable",
      "type": "function"
    },
    {
      "inputs": [
        {
          "internalType": "address",
          "name": "accountingAddress",
          "type": "address"
        }
      ],
      "name": "setAccountingAddress",
      "outputs": [],
      "stateMutability": "nonpayable",
      "type": "function"
    },
    {
      "inputs": [],
      "name": "symbol",
      "outputs": [
        {
          "internalType": "string",
          "name": "",
          "type": "string"
        }
      ],
      "stateMutability": "view",
      "type": "function"
    },
    {
      "inputs": [],
      "name": "totalSupply",
      "outputs": [
        {
          "internalType": "uint256",
          "name": "",
          "type": "uint256"
        }
      ],
      "stateMutability": "view",
      "type": "function"
    },
    {
      "inputs": [
        {
          "internalType": "address",
          "name": "to",
          "type": "address"
        },
        {
          "internalType": "uint256",
          "name": "amount",
          "type": "uint256"
        }
      ],
      "name": "transfer",
      "outputs": [
        {
          "internalType": "bool",
          "name": "success",
          "type": "bool"
        }
      ],
      "stateMutability": "nonpayable",
      "type": "function"
    },
    {
      "inputs": [
        {
          "internalType": "address",
          "name": "from",
          "type": "address"
        },
        {
          "internalType": "address",
          "name": "to",
          "type": "address"
        },
        {
          "internalType": "uint256",
          "name": "amount",
          "type": "uint256"
        }
      ],
      "name": "transferFrom",
      "outputs": [
        {
          "internalType": "bool",
          "name": "success",
          "type": "bool"
        }
      ],
      "stateMutability": "nonpayable",
      "type": "function"
    }
  ],
  "bytecode": "0x600080546001600160a01b0319163317905560c060405260086080908152675368696e74616d6160c01b60a0526001906100399082610171565b506040805180820190915260088152675348494e54414d4160c01b60208201526002906100669082610171565b5034801561007357600080fd5b506003805460ff1916600917905566038d7ea4c68000600481905560405133916000917fddf252ad1be2c89b69c2b068fc378daa952ba7f163c4a11628f55a4df523b3ef916100c59190815260200190565b60405180910390a3610230565b634e487b7160e01b600052604160045260246000fd5b600181811c908216806100fc57607f821691505b60208210810361011c57634e487b7160e01b600052602260045260246000fd5b50919050565b601f82111561016c57600081815260208120601f850160051c810160208610156101495750805b601f850160051c820191505b8181101561016857828155600101610155565b5050505b505050565b81516001600160401b0381111561018a5761018a6100d2565b61019e8161019884546100e8565b84610122565b602080601f8311600181146101d357600084156101bb5750858301515b600019600386901b1c1916600185901b178555610168565b600085815260208120601f198616915b82811015610202578886015182559484019460019091019084016101e3565b50858210156102205787850151600019600388901b60f8161c191681555b5050505050600190811b01905550565b61087e8061023f6000396000f3fe608060405234801561001057600080fd5b50600436106100f55760003560e01c80636c2004fd116100975780638da5cb5b116100665780638da5cb5b146101e457806395d89b41146101f7578063a9059cbb146101ff578063dd62ed3e1461021257600080fd5b80636c2004fd1461018f57806370a08231146101a4578063715018a6146101b7578063893d20e8146101bf57600080fd5b806323b872dd116100d357806323b872dd1461014d578063313ce5671461016057806332424aa3146101795780633eaaf86b1461018657600080fd5b806306fdde03146100fa578063095ea7b31461011857806318160ddd1461013b575b600080fd5b61010261024b565b60405161010f9190610673565b60405180910390f35b61012b6101263660046106e4565b6102d9565b604051901515815260200161010f565b6004545b60405190815260200161010f565b61012b61015b36600461070e565b610345565b60035460ff165b60405160ff909116815260200161010f565b6003546101679060ff1681565b61013f60045481565b6101a261019d36600461074a565b610468565b005b61013f6101b236600461074a565b6104a1565b6101a2610516565b6000546001600160a01b03165b6040516001600160a01b03909116815260200161010f565b6000546101cc906001600160a01b031681565b610102610577565b61012b61020d3660046106e4565b610584565b61013f610220366004610765565b6001600160a01b03918216600090815260056020908152604080832093909416825291909152205490565b6001805461025890610798565b80601f016020809104026020016040519081016040528092919081815260200182805461028490610798565b80156102d15780601f106102a6576101008083540402835291602001916102d1565b820191906000526020600020905b8154815290600101906020018083116102b457829003601f168201915b505050505081565b3360008181526005602090815260408083206001600160a01b038716808552925280832085905551919290917f8c5be1e5ebec7d5bd14f71427d1e84f3dd0314c0f7b2291e5b200ac8c7c3b925906103349086815260200190565b60405180910390a350600192915050565b60006001821161035457600080fd5b6001600160a01b03841660009081526005602090815260408083203384529091529020546103829083610657565b6001600160a01b03858116600081815260056020908152604080832033845282529182902094909455518581529186169290917fddf252ad1be2c89b69c2b068fc378daa952ba7f163c4a11628f55a4df523b3ef910160405180910390a36006546040516337751b3560e01b81523360048201526001600160a01b03858116602483015260448201859052909116906337751b35906064016020604051808303816000875af1158015610439573d6000803e3d6000fd5b505050506040513d601f19601f8201168201806040525081019061045d91906107d2565b506001949350505050565b6000546001600160a01b0316331461047f57600080fd5b600680546001600160a01b0319166001600160a01b0392909216919091179055565b6006546040516370a0823160e01b81526001600160a01b03838116600483015260009216906370a0823190602401602060405180830381865afa1580156104ec573d6000803e3d6000fd5b505050506040513d601f19601f8201168201806040525081019061051091906107f4565b92915050565b6000546001600160a01b0316331461052d57600080fd5b600080546040516001600160a01b03909116907f8be0079c531659141344cd1fd0a4f28419497f9722a3daafe3b4186f6b6457e0908390a3600080546001600160a01b0319169055565b6002805461025890610798565b6000826001600160a01b0316336001600160a01b03167fddf252ad1be2c89b69c2b068fc378daa952ba7f163c4a11628f55a4df523b3ef846040516105cb91815260200190565b60405180910390a36006546040516337751b3560e01b81523360048201526001600160a01b03858116602483015260448201859052909116906337751b35906064016020604051808303816000875af115801561062c573d6000803e3d6000fd5b505050506040513d601f19601f8201168201806040525081019061065091906107d2565b9392505050565b6000828211156106695761066961080d565b6106508284610823565b600060208083528351808285015260005b818110156106a057858101830151858201604001528201610684565b818111156106b2576000604083870101525b50601f01601f1916929092016040019392505050565b80356001600160a01b03811681146106df57600080fd5b919050565b600080604083850312156106f757600080fd5b610700836106c8565b946020939093013593505050565b60008060006060848603121561072357600080fd5b61072c846106c8565b925061073a602085016106c8565b9150604084013590509250925092565b60006020828403121561075c57600080fd5b610650826106c8565b6000806040838503121561077857600080fd5b610781836106c8565b915061078f602084016106c8565b90509250929050565b600181811c908216806107ac57607f821691505b6020821081036107cc57634e487b7160e01b600052602260045260246000fd5b50919050565b6000602082840312156107e457600080fd5b8151801515811461065057600080fd5b60006020828403121561080657600080fd5b5051919050565b634e487b7160e01b600052600160045260246000fd5b60008282101561084357634e487b7160e01b600052601160045260246000fd5b50039056fea2646970667358221220620fad2ef369f3ce3f56de5d3e2352512186c488675baa0230808bdb460a79a964736f6c634300080f0033",
  "linkReferences": {},
  "deployedLinkReferences": {}
}