{
  "_format": "hh-sol-artifact-1",
  "contractName": "Account",
  "sourceName": "contracts/Accounting.sol",
  "abi": [
    {
      "inputs": [],
      "stateMutability": "nonpayable",
      "type": "constructor"
    },
    {
      "anonymous": false,
      "inputs": [
        {
          "indexed": true,
          "internalType": "address",
          "name": "previousOwner",
          "type": "address"
        },
        {
          "indexed": true,
          "internalType": "address",
          "name": "newOwner",
          "type": "address"
        }
      ],
      "name": "OwnershipTransferred",
      "type": "event"
    },
    {
      "inputs": [
        {
          "internalType": "address",
          "name": "owner",
          "type": "address"
        },
        {
          "internalType": "address",
          "name": "spender",
          "type": "address"
        }
      ],
      "name": "allowance",
      "outputs": [
        {
          "internalType": "uint256",
          "name": "",
          "type": "uint256"
        }
      ],
      "stateMutability": "view",
      "type": "function"
    },
    {
      "inputs": [
        {
          "internalType": "address",
          "name": "account",
          "type": "address"
        }
      ],
      "name": "balanceOf",
      "outputs": [
        {
          "internalType": "uint256",
          "name": "",
          "type": "uint256"
        }
      ],
      "stateMutability": "view",
      "type": "function"
    },
    {
      "inputs": [
        {
          "internalType": "address",
          "name": "from",
          "type": "address"
        },
        {
          "internalType": "address",
          "name": "to",
          "type": "address"
        },
        {
          "internalType": "uint256",
          "name": "amount",
          "type": "uint256"
        }
      ],
      "name": "doTransfer",
      "outputs": [
        {
          "internalType": "bool",
          "name": "",
          "type": "bool"
        }
      ],
      "stateMutability": "nonpayable",
      "type": "function"
    },
    {
      "inputs": [],
      "name": "owner",
      "outputs": [
        {
          "internalType": "address",
          "name": "",
          "type": "address"
        }
      ],
      "stateMutability": "view",
      "type": "function"
    },
    {
      "inputs": [],
      "name": "renounceOwnership",
      "outputs": [],
      "stateMutability": "nonpayable",
      "type": "function"
    },
    {
      "inputs": [
        {
          "internalType": "address",
          "name": "newOwner",
          "type": "address"
        }
      ],
      "name": "transferOwnership",
      "outputs": [],
      "stateMutability": "nonpayable",
      "type": "function"
    }
  ],
  "bytecode": "0x60806040526003805460ff1916601217905534801561001d57600080fd5b50600080546001600160a01b031916339081178255604051909182917f8be0079c531659141344cd1fd0a4f28419497f9722a3daafe3b4186f6b6457e0908290a3506106d28061006e6000396000f3fe608060405234801561001057600080fd5b50600436106100625760003560e01c806337751b351461006757806370a082311461008f578063715018a6146100c65780638da5cb5b146100d0578063dd62ed3e146100eb578063f2fde38b14610124575b600080fd5b61007a610075366004610552565b610137565b60405190151581526020015b60405180910390f35b6100b861009d36600461058e565b6001600160a01b031660009081526001602052604090205490565b604051908152602001610086565b6100ce61014e565b005b6000546040516001600160a01b039091168152602001610086565b6100b86100f93660046105a9565b6001600160a01b03918216600090815260026020908152604080832093909416825291909152205490565b6100ce61013236600461058e565b6101f7565b600061014484848461025d565b5060019392505050565b6000546001600160a01b031633146101ad5760405162461bcd60e51b815260206004820181905260248201527f4f776e61626c653a2063616c6c6572206973206e6f7420746865206f776e657260448201526064015b60405180910390fd5b600080546040516001600160a01b03909116907f8be0079c531659141344cd1fd0a4f28419497f9722a3daafe3b4186f6b6457e0908390a3600080546001600160a01b0319169055565b6000546001600160a01b031633146102515760405162461bcd60e51b815260206004820181905260248201527f4f776e61626c653a2063616c6c6572206973206e6f7420746865206f776e657260448201526064016101a4565b61025a816103d6565b50565b6001600160a01b0383166102c15760405162461bcd60e51b815260206004820152602560248201527f42455032303a207472616e736665722066726f6d20746865207a65726f206164604482015264647265737360d81b60648201526084016101a4565b6001600160a01b0382166103235760405162461bcd60e51b815260206004820152602360248201527f42455032303a207472616e7366657220746f20746865207a65726f206164647260448201526265737360e81b60648201526084016101a4565b6000546001600160a01b0390811690841681146103915761037782604051806060016040528060268152602001610677602691396001600160a01b0387166000908152600160205260409020549190610496565b6001600160a01b0385166000908152600160205260409020555b6001600160a01b0383166000908152600160205260409020546103b490836104d0565b6001600160a01b03909316600090815260016020526040902092909255505050565b6001600160a01b03811661043b5760405162461bcd60e51b815260206004820152602660248201527f4f776e61626c653a206e6577206f776e657220697320746865207a65726f206160448201526564647265737360d01b60648201526084016101a4565b600080546040516001600160a01b03808516939216917f8be0079c531659141344cd1fd0a4f28419497f9722a3daafe3b4186f6b6457e091a3600080546001600160a01b0319166001600160a01b0392909216919091179055565b600081848411156104ba5760405162461bcd60e51b81526004016101a491906105dc565b5060006104c78486610647565b95945050505050565b6000806104dd838561065e565b90508381101561052f5760405162461bcd60e51b815260206004820152601b60248201527f536166654d6174683a206164646974696f6e206f766572666c6f77000000000060448201526064016101a4565b9392505050565b80356001600160a01b038116811461054d57600080fd5b919050565b60008060006060848603121561056757600080fd5b61057084610536565b925061057e60208501610536565b9150604084013590509250925092565b6000602082840312156105a057600080fd5b61052f82610536565b600080604083850312156105bc57600080fd5b6105c583610536565b91506105d360208401610536565b90509250929050565b600060208083528351808285015260005b81811015610609578581018301518582016040015282016105ed565b8181111561061b576000604083870101525b50601f01601f1916929092016040019392505050565b634e487b7160e01b600052601160045260246000fd5b60008282101561065957610659610631565b500390565b6000821982111561067157610671610631565b50019056fe42455032303a207472616e7366657220616d6f756e7420657863656564732062616c616e6365a2646970667358221220d93eedc514708c5530957775de3e35217ec715c8f680bcc0686072c4a5f4843864736f6c634300080f0033",
  "linkReferences": {},
  "deployedLinkReferences": {}
}