{
  "_format": "hh-sol-artifact-1",
  "contractName": "Staking",
  "sourceName": "contracts/staking.sol",
  "abi": [
    {
      "inputs": [
        {
          "internalType": "address",
          "name": "_stakeTokenAddress",
          "type": "address"
        },
        {
          "internalType": "address",
          "name": "_rewardTokenAddress_1",
          "type": "address"
        },
        {
          "internalType": "address",
          "name": "_rewardTokenAddress_2",
          "type": "address"
        }
      ],
      "stateMutability": "nonpayable",
      "type": "constructor"
    },
    {
      "anonymous": false,
      "inputs": [
        {
          "indexed": true,
          "internalType": "address",
          "name": "previousOwner",
          "type": "address"
        },
        {
          "indexed": true,
          "internalType": "address",
          "name": "newOwner",
          "type": "address"
        }
      ],
      "name": "OwnershipTransferred",
      "type": "event"
    },
    {
      "anonymous": false,
      "inputs": [
        {
          "indexed": false,
          "internalType": "address",
          "name": "staker",
          "type": "address"
        },
        {
          "indexed": false,
          "internalType": "uint256",
          "name": "amount_1",
          "type": "uint256"
        },
        {
          "indexed": false,
          "internalType": "uint256",
          "name": "amount_2",
          "type": "uint256"
        }
      ],
      "name": "Reward",
      "type": "event"
    },
    {
      "anonymous": false,
      "inputs": [
        {
          "indexed": false,
          "internalType": "address",
          "name": "staker",
          "type": "address"
        },
        {
          "indexed": false,
          "internalType": "uint256",
          "name": "amount",
          "type": "uint256"
        }
      ],
      "name": "Stake",
      "type": "event"
    },
    {
      "anonymous": false,
      "inputs": [
        {
          "indexed": false,
          "internalType": "address",
          "name": "staker",
          "type": "address"
        },
        {
          "indexed": false,
          "internalType": "uint256",
          "name": "amount",
          "type": "uint256"
        }
      ],
      "name": "Withdraw",
      "type": "event"
    },
    {
      "inputs": [],
      "name": "claimRewards",
      "outputs": [],
      "stateMutability": "nonpayable",
      "type": "function"
    },
    {
      "inputs": [
        {
          "internalType": "address",
          "name": "stakerAddress",
          "type": "address"
        }
      ],
      "name": "countFee",
      "outputs": [
        {
          "internalType": "uint256",
          "name": "_fee",
          "type": "uint256"
        }
      ],
      "stateMutability": "view",
      "type": "function"
    },
    {
      "inputs": [
        {
          "internalType": "address",
          "name": "stakerAddress",
          "type": "address"
        }
      ],
      "name": "countReward",
      "outputs": [
        {
          "internalType": "uint256",
          "name": "_reward_1",
          "type": "uint256"
        },
        {
          "internalType": "uint256",
          "name": "_reward_2",
          "type": "uint256"
        }
      ],
      "stateMutability": "view",
      "type": "function"
    },
    {
      "inputs": [
        {
          "internalType": "address",
          "name": "stakerAddress",
          "type": "address"
        }
      ],
      "name": "countStake",
      "outputs": [
        {
          "internalType": "uint256",
          "name": "_stake",
          "type": "uint256"
        }
      ],
      "stateMutability": "view",
      "type": "function"
    },
    {
      "inputs": [],
      "name": "countTotalReward",
      "outputs": [
        {
          "internalType": "uint256",
          "name": "_totalReward_1",
          "type": "uint256"
        },
        {
          "internalType": "uint256",
          "name": "_totalReward_2",
          "type": "uint256"
        }
      ],
      "stateMutability": "view",
      "type": "function"
    },
    {
      "inputs": [],
      "name": "countTotalStake",
      "outputs": [
        {
          "internalType": "uint256",
          "name": "_totalStake",
          "type": "uint256"
        }
      ],
      "stateMutability": "view",
      "type": "function"
    },
    {
      "inputs": [],
      "name": "getRewardableAmount",
      "outputs": [
        {
          "internalType": "uint256",
          "name": "_rewardableAmount_1",
          "type": "uint256"
        },
        {
          "internalType": "uint256",
          "name": "_rewardableAmount_2",
          "type": "uint256"
        }
      ],
      "stateMutability": "view",
      "type": "function"
    },
    {
      "inputs": [
        {
          "internalType": "address",
          "name": "stakerAddress",
          "type": "address"
        }
      ],
      "name": "getStakeInfo",
      "outputs": [
        {
          "internalType": "uint256",
          "name": "_total",
          "type": "uint256"
        },
        {
          "internalType": "uint256",
          "name": "_staking",
          "type": "uint256"
        },
        {
          "internalType": "uint256",
          "name": "_rewardable_1",
          "type": "uint256"
        },
        {
          "internalType": "uint256",
          "name": "_rewardable_2",
          "type": "uint256"
        },
        {
          "internalType": "uint256",
          "name": "_rewards_1",
          "type": "uint256"
        },
        {
          "internalType": "uint256",
          "name": "_rewards_2",
          "type": "uint256"
        }
      ],
      "stateMutability": "view",
      "type": "function"
    },
    {
      "inputs": [],
      "name": "lastUpdateTime",
      "outputs": [
        {
          "internalType": "uint256",
          "name": "",
          "type": "uint256"
        }
      ],
      "stateMutability": "view",
      "type": "function"
    },
    {
      "inputs": [],
      "name": "owner",
      "outputs": [
        {
          "internalType": "address",
          "name": "",
          "type": "address"
        }
      ],
      "stateMutability": "view",
      "type": "function"
    },
    {
      "inputs": [],
      "name": "pancakeswapRouter",
      "outputs": [
        {
          "internalType": "contract IPancakeswapRouter",
          "name": "",
          "type": "address"
        }
      ],
      "stateMutability": "view",
      "type": "function"
    },
    {
      "inputs": [],
      "name": "renounceOwnership",
      "outputs": [],
      "stateMutability": "nonpayable",
      "type": "function"
    },
    {
      "inputs": [],
      "name": "rewardTokenAddress_1",
      "outputs": [
        {
          "internalType": "address",
          "name": "",
          "type": "address"
        }
      ],
      "stateMutability": "view",
      "type": "function"
    },
    {
      "inputs": [],
      "name": "rewardTokenAddress_2",
      "outputs": [
        {
          "internalType": "address",
          "name": "",
          "type": "address"
        }
      ],
      "stateMutability": "view",
      "type": "function"
    },
    {
      "inputs": [
        {
          "internalType": "address",
          "name": "_RouterAddress",
          "type": "address"
        }
      ],
      "name": "setInitialAddresses",
      "outputs": [],
      "stateMutability": "nonpayable",
      "type": "function"
    },
    {
      "inputs": [
        {
          "internalType": "uint256",
          "name": "amount",
          "type": "uint256"
        }
      ],
      "name": "stake",
      "outputs": [],
      "stateMutability": "nonpayable",
      "type": "function"
    },
    {
      "inputs": [],
      "name": "stakeTokenAddress",
      "outputs": [
        {
          "internalType": "address",
          "name": "",
          "type": "address"
        }
      ],
      "stateMutability": "view",
      "type": "function"
    },
    {
      "inputs": [
        {
          "internalType": "address",
          "name": "",
          "type": "address"
        }
      ],
      "name": "stakers",
      "outputs": [
        {
          "internalType": "address",
          "name": "referal",
          "type": "address"
        },
        {
          "internalType": "uint256",
          "name": "stakingAmount",
          "type": "uint256"
        },
        {
          "internalType": "uint256",
          "name": "lastUpdateTime",
          "type": "uint256"
        },
        {
          "internalType": "uint256",
          "name": "lastStakeUpdateTime",
          "type": "uint256"
        },
        {
          "internalType": "uint256",
          "name": "stake",
          "type": "uint256"
        },
        {
          "internalType": "uint256",
          "name": "rewards_1",
          "type": "uint256"
        },
        {
          "internalType": "uint256",
          "name": "rewards_2",
          "type": "uint256"
        }
      ],
      "stateMutability": "view",
      "type": "function"
    },
    {
      "inputs": [],
      "name": "swapTokenForReward",
      "outputs": [],
      "stateMutability": "nonpayable",
      "type": "function"
    },
    {
      "inputs": [],
      "name": "totalStake",
      "outputs": [
        {
          "internalType": "uint256",
          "name": "",
          "type": "uint256"
        }
      ],
      "stateMutability": "view",
      "type": "function"
    },
    {
      "inputs": [],
      "name": "totalStakingAmount",
      "outputs": [
        {
          "internalType": "uint256",
          "name": "",
          "type": "uint256"
        }
      ],
      "stateMutability": "view",
      "type": "function"
    },
    {
      "inputs": [
        {
          "internalType": "address",
          "name": "newOwner",
          "type": "address"
        }
      ],
      "name": "transferOwnership",
      "outputs": [],
      "stateMutability": "nonpayable",
      "type": "function"
    },
    {
      "inputs": [],
      "name": "unstaking",
      "outputs": [],
      "stateMutability": "nonpayable",
      "type": "function"
    }
  ],
  "bytecode": "0x608060405234801561001057600080fd5b506040516115d73803806115d78339818101604052606081101561003357600080fd5b5080516020820151604090920151909190600061004e6100e1565b600080546001600160a01b0319166001600160a01b0383169081178255604051929350917f8be0079c531659141344cd1fd0a4f28419497f9722a3daafe3b4186f6b6457e0908290a350600180546001600160a01b039384166001600160a01b031991821617909155600280549284169282169290921790915560038054939092169216919091179055426005556100e5565b3390565b6114e3806100f46000396000f3fe608060405234801561001057600080fd5b506004361061014d5760003560e01c80638da5cb5b116100c3578063c8f33c911161007c578063c8f33c9114610361578063d201114a14610369578063db6754ed14610371578063e7caa8c414610379578063f2fde38b14610381578063f4eb4a59146103a75761014d565b80638da5cb5b1461022f5780639168ae7214610237578063a694fc3a1461029f578063b083692d146102bc578063b87089d9146102e2578063c3453153146103085761014d565b8063372500ab11610115578063372500ab146101c857806356714be3146101d05780635f920bba1461020f578063630b114614610217578063715018a61461021f5780638b0e9f3f146102275761014d565b80630106395f1461015257806301c15475146101765780630a84bf3e1461017e5780632461da551461018657806328ec13ee146101a0575b600080fd5b61015a6103af565b604080516001600160a01b039092168252519081900360200190f35b61015a6103be565b61015a6103cd565b61018e6103dc565b60408051918252519081900360200190f35b6101c6600480360360208110156101b657600080fd5b50356001600160a01b0316610408565b005b6101c6610494565b6101f6600480360360208110156101e657600080fd5b50356001600160a01b03166106a5565b6040805192835260208301919091528051918290030190f35b6101c661071b565b6101c6610738565b6101c6610927565b61018e6109db565b61015a6109e1565b61025d6004803603602081101561024d57600080fd5b50356001600160a01b03166109f0565b604080516001600160a01b0390981688526020880196909652868601949094526060860192909252608085015260a084015260c0830152519081900360e00190f35b6101c6600480360360208110156102b557600080fd5b5035610a37565b61018e600480360360208110156102d257600080fd5b50356001600160a01b0316610b59565b61018e600480360360208110156102f857600080fd5b50356001600160a01b0316610b9c565b61032e6004803603602081101561031e57600080fd5b50356001600160a01b0316610c45565b604080519687526020870195909552858501939093526060850191909152608084015260a0830152519081900360c00190f35b61018e610ca8565b61018e610cae565b61015a610cb4565b6101f6610cc3565b6101c66004803603602081101561039757600080fd5b50356001600160a01b0316610dbf565b6101f6610e35565b6003546001600160a01b031681565b6001546001600160a01b031681565b6002546001600160a01b031681565b60006103ff6103f660055442610f4890919063ffffffff16565b60045490610f9e565b60065401905090565b610410611001565b6000546001600160a01b03908116911614610472576040805162461bcd60e51b815260206004820181905260248201527f4f776e61626c653a2063616c6c6572206973206e6f7420746865206f776e6572604482015290519081900360640190fd5b600880546001600160a01b0319166001600160a01b0392909216919091179055565b3361049d611005565b60006104a882610b9c565b90506000806104b6846106a5565b915091506000821161050f576040805162461bcd60e51b815260206004820152601c60248201527f7374616b696e67203a2072657761726420616d6f756e74206973203000000000604482015290519081900360640190fd5b6001546002546040805163a9059cbb60e01b81526001600160a01b038881166004830152602482018790529151938216939290911691839163a9059cbb9160448083019260209291908290030181600087803b15801561056e57600080fd5b505af1158015610582573d6000803e3d6000fd5b505050506040513d602081101561059857600080fd5b50506040805163a9059cbb60e01b81526001600160a01b0388811660048301526024820186905291519183169163a9059cbb916044808201926020929091908290030181600087803b1580156105ed57600080fd5b505af1158015610601573d6000803e3d6000fd5b505050506040513d602081101561061757600080fd5b50506001600160a01b03861660008181526007602090815260408083206005810180548a019055600680820180548a01905580548b9003905560048101939093554260029093019290925581519283528201869052818101859052517f02a6a2be713fedf52f113c0a759f1c1a23a113476d9b1b1a2a453c910660de4e9181900360600190a1505050505050565b60008060006106b26103dc565b90506000806106bf610cc3565b9150915060006106ce87610b9c565b905083156106ef576106ea846106e48584610f9e565b9061103e565b6106f2565b60005b9550831561070d57610708846106e48484610f9e565b610710565b60005b945050505050915091565b600080610726610e35565b91509150610734828261109c565b5050565b33600081815260076020526040902060010154600061075683610b59565b6003549091506001600160a01b031663a9059cbb6107726109e1565b6107826103e86106e48787610f9e565b6040518363ffffffff1660e01b815260040180836001600160a01b0316815260200182815260200192505050602060405180830381600087803b1580156107c857600080fd5b505af11580156107dc573d6000803e3d6000fd5b505050506040513d60208110156107f257600080fd5b50506003546001600160a01b031663a9059cbb846108186103e86106e487878303610f9e565b6040518363ffffffff1660e01b815260040180836001600160a01b0316815260200182815260200192505050602060405180830381600087803b15801561085e57600080fd5b505af1158015610872573d6000803e3d6000fd5b505050506040513d602081101561088857600080fd5b50610894905083610b9c565b6001600160a01b03841660009081526007602052604090206004810191909155600181018054849003905542600282018190556003909101556108d5611005565b600480548390039055604080516001600160a01b03851681526020810184905281517f884edad9ce6fa2440d8a54cc123490eb96d2768479d49ff9c7366125a9424364929181900390910190a1505050565b61092f611001565b6000546001600160a01b03908116911614610991576040805162461bcd60e51b815260206004820181905260248201527f4f776e61626c653a2063616c6c6572206973206e6f7420746865206f776e6572604482015290519081900360640190fd5b600080546040516001600160a01b03909116907f8be0079c531659141344cd1fd0a4f28419497f9722a3daafe3b4186f6b6457e0908390a3600080546001600160a01b0319169055565b60065481565b6000546001600160a01b031690565b60076020526000908152604090208054600182015460028301546003840154600485015460058601546006909601546001600160a01b039095169593949293919290919087565b600354604080516323b872dd60e01b8152336004820181905230602483015260448201859052915191926001600160a01b0316916323b872dd916064808201926020929091908290030181600087803b158015610a9357600080fd5b505af1158015610aa7573d6000803e3d6000fd5b505050506040513d6020811015610abd57600080fd5b50610ac9905081610b9c565b6001600160a01b03821660009081526007602052604090206004810191909155600181018054840190554260028201819055600390910155610b09611005565b6004805483019055604080516001600160a01b03831681526020810184905281517febedb8b3c678666e7f36970bc8f57abf6d8fa2e828c0da91ea5b75bf68ed101a929181900390910190a15050565b6001600160a01b03811660009081526007602052604081206003015462278d0090610b85904290610f48565b1015610b935750600a610b97565b5060005b919050565b600060045460001415610bb157506000610b97565b610bb9611441565b506001600160a01b03808316600090815260076020908152604091829020825160e08101845281549094168452600181015491840182905260028101549284018390526003810154606085015260048101546080850152600581015460a08501526006015460c0840152610c3891610c32904290610f48565b90610f9e565b6080909101510192915050565b6004546001600160a01b03821660009081526007602052604081206001015490808080610c71876106a5565b6001600160a01b03909816600090815260076020526040902060058101546006909101549799969891979196909550909350915050565b60055481565b60045481565b6008546001600160a01b031681565b600154604080516370a0823160e01b8152306004820152905160009283926001600160a01b03909116916370a0823191602480820192602092909190829003018186803b158015610d1357600080fd5b505afa158015610d27573d6000803e3d6000fd5b505050506040513d6020811015610d3d57600080fd5b5051600254604080516370a0823160e01b815230600482015290519294506001600160a01b03909116916370a0823191602480820192602092909190829003018186803b158015610d8d57600080fd5b505afa158015610da1573d6000803e3d6000fd5b505050506040513d6020811015610db757600080fd5b505191929050565b610dc7611001565b6000546001600160a01b03908116911614610e29576040805162461bcd60e51b815260206004820181905260248201527f4f776e61626c653a2063616c6c6572206973206e6f7420746865206f776e6572604482015290519081900360640190fd5b610e32816113a1565b50565b600354604080516370a0823160e01b8152306004820152905160009283926002926001600160a01b03909216916370a0823191602480820192602092909190829003018186803b158015610e8857600080fd5b505afa158015610e9c573d6000803e3d6000fd5b505050506040513d6020811015610eb257600080fd5b505181610ebb57fe5b600354604080516370a0823160e01b815230600482015290519390920494506002926001600160a01b03909116916370a08231916024808301926020929190829003018186803b158015610f0e57600080fd5b505afa158015610f22573d6000803e3d6000fd5b505050506040513d6020811015610f3857600080fd5b505181610f4157fe5b0490509091565b80820382811115610f98576040805162461bcd60e51b815260206004820152601560248201527464732d6d6174682d7375622d756e646572666c6f7760581b604482015290519081900360640190fd5b92915050565b6000811580610fb957505080820282828281610fb657fe5b04145b610f98576040805162461bcd60e51b815260206004820152601460248201527364732d6d6174682d6d756c2d6f766572666c6f7760601b604482015290519081900360640190fd5b3390565b600061100f610e35565b50905069021e19e0c9bab240000081111561102c5761102c61071b565b6110346103dc565b6006555042600555565b600080821161108b576040805162461bcd60e51b815260206004820152601460248201527364732d6d6174682d6d756c2d6f766572666c6f7760601b604482015290519081900360640190fd5b81838161109457fe5b049392505050565b604080516002808252606080830184529260208301908036833750506040805160028082526060808301845294955090925090602083019080368337505060035484519293506001600160a01b0316918491506000906110f857fe5b6001600160a01b039283166020918202929092010152600180548451921691849190811061112257fe5b6001600160a01b0392831660209182029290920101526003548251911690829060009061114b57fe5b6001600160a01b03928316602091820292909201015260025482519116908290600190811061117657fe5b6001600160a01b039283166020918202929092018101919091526003546008546040805163095ea7b360e01b81529185166004830152888801602483015251919093169263095ea7b39260448083019391928290030181600087803b1580156111de57600080fd5b505af11580156111f2573d6000803e3d6000fd5b505050506040513d602081101561120857600080fd5b5050600854604051635c11d79560e01b8152600481018681526000602483018190523060648401819052426084850181905260a060448601908152885160a487015288516001600160a01b0390971696635c11d795968c968b9594939092909160c40190602087810191028083838b5b83811015611290578181015183820152602001611278565b505050509050019650505050505050600060405180830381600087803b1580156112b957600080fd5b505af11580156112cd573d6000803e3d6000fd5b5050600854604051635c11d79560e01b8152600481018781526000602483018190523060648401819052426084850181905260a060448601908152895160a487015289516001600160a01b039097169850635c11d79597508b9693958a95939492939260c490910190602080880191028083838b5b8381101561135a578181015183820152602001611342565b505050509050019650505050505050600060405180830381600087803b15801561138357600080fd5b505af1158015611397573d6000803e3d6000fd5b5050505050505050565b6001600160a01b0381166113e65760405162461bcd60e51b81526004018080602001828103825260268152602001806114886026913960400191505060405180910390fd5b600080546040516001600160a01b03808516939216917f8be0079c531659141344cd1fd0a4f28419497f9722a3daafe3b4186f6b6457e091a3600080546001600160a01b0319166001600160a01b0392909216919091179055565b6040518060e0016040528060006001600160a01b03168152602001600081526020016000815260200160008152602001600081526020016000815260200160008152509056fe4f776e61626c653a206e6577206f776e657220697320746865207a65726f2061646472657373a26469706673582212203ae7fc10b765ad9ec70a1d7240f83824a0fdcba0f7ca67b03ba75f4bcb79577164736f6c634300060c0033",
  "linkReferences": {},
  "deployedLinkReferences": {}
}