{
  "_format": "hh-sol-artifact-1",
  "contractName": "Presale",
  "sourceName": "contracts/presale.sol",
  "abi": [
    {
      "inputs": [
        {
          "internalType": "address",
          "name": "_tokenAddress",
          "type": "address"
        },
        {
          "internalType": "address",
          "name": "_adminWallet",
          "type": "address"
        },
        {
          "components": [
            {
              "internalType": "uint256",
              "name": "vestingPrice",
              "type": "uint256"
            },
            {
              "internalType": "uint256",
              "name": "vestingPeriod",
              "type": "uint256"
            },
            {
              "internalType": "uint256",
              "name": "price",
              "type": "uint256"
            }
          ],
          "internalType": "struct Presale.Terms",
          "name": "_terms",
          "type": "tuple"
        }
      ],
      "stateMutability": "nonpayable",
      "type": "constructor"
    },
    {
      "anonymous": false,
      "inputs": [
        {
          "indexed": false,
          "internalType": "address",
          "name": "to",
          "type": "address"
        },
        {
          "indexed": false,
          "internalType": "uint256",
          "name": "amount",
          "type": "uint256"
        }
      ],
      "name": "Buy",
      "type": "event"
    },
    {
      "anonymous": false,
      "inputs": [
        {
          "indexed": true,
          "internalType": "address",
          "name": "previousOwner",
          "type": "address"
        },
        {
          "indexed": true,
          "internalType": "address",
          "name": "newOwner",
          "type": "address"
        }
      ],
      "name": "OwnershipTransferred",
      "type": "event"
    },
    {
      "stateMutability": "payable",
      "type": "fallback"
    },
    {
      "inputs": [
        {
          "internalType": "address",
          "name": "_userAddress",
          "type": "address"
        }
      ],
      "name": "addWhitelist",
      "outputs": [],
      "stateMutability": "nonpayable",
      "type": "function"
    },
    {
      "inputs": [],
      "name": "buy",
      "outputs": [],
      "stateMutability": "payable",
      "type": "function"
    },
    {
      "inputs": [
        {
          "internalType": "address",
          "name": "_userAddress",
          "type": "address"
        }
      ],
      "name": "checkCanBuy",
      "outputs": [
        {
          "internalType": "bool",
          "name": "",
          "type": "bool"
        }
      ],
      "stateMutability": "view",
      "type": "function"
    },
    {
      "inputs": [
        {
          "internalType": "uint256",
          "name": "amount",
          "type": "uint256"
        }
      ],
      "name": "claimETH",
      "outputs": [],
      "stateMutability": "nonpayable",
      "type": "function"
    },
    {
      "inputs": [
        {
          "internalType": "address",
          "name": "tokenAddress",
          "type": "address"
        },
        {
          "internalType": "uint256",
          "name": "amount",
          "type": "uint256"
        }
      ],
      "name": "claimToken",
      "outputs": [],
      "stateMutability": "nonpayable",
      "type": "function"
    },
    {
      "inputs": [],
      "name": "getPrice",
      "outputs": [
        {
          "internalType": "uint256",
          "name": "tokenPrice",
          "type": "uint256"
        }
      ],
      "stateMutability": "view",
      "type": "function"
    },
    {
      "inputs": [],
      "name": "owner",
      "outputs": [
        {
          "internalType": "address",
          "name": "",
          "type": "address"
        }
      ],
      "stateMutability": "view",
      "type": "function"
    },
    {
      "inputs": [
        {
          "internalType": "address",
          "name": "_userAddress",
          "type": "address"
        }
      ],
      "name": "removeWhitelist",
      "outputs": [],
      "stateMutability": "nonpayable",
      "type": "function"
    },
    {
      "inputs": [],
      "name": "renounceOwnership",
      "outputs": [],
      "stateMutability": "nonpayable",
      "type": "function"
    },
    {
      "inputs": [],
      "name": "resetStartTime",
      "outputs": [],
      "stateMutability": "nonpayable",
      "type": "function"
    },
    {
      "inputs": [
        {
          "components": [
            {
              "internalType": "uint256",
              "name": "vestingPrice",
              "type": "uint256"
            },
            {
              "internalType": "uint256",
              "name": "vestingPeriod",
              "type": "uint256"
            },
            {
              "internalType": "uint256",
              "name": "price",
              "type": "uint256"
            }
          ],
          "internalType": "struct Presale.Terms",
          "name": "_terms",
          "type": "tuple"
        }
      ],
      "name": "resetTerms",
      "outputs": [],
      "stateMutability": "nonpayable",
      "type": "function"
    },
    {
      "inputs": [
        {
          "internalType": "address",
          "name": "_adminWallet",
          "type": "address"
        }
      ],
      "name": "setAdminWallet",
      "outputs": [],
      "stateMutability": "nonpayable",
      "type": "function"
    },
    {
      "inputs": [],
      "name": "startTime",
      "outputs": [
        {
          "internalType": "uint256",
          "name": "",
          "type": "uint256"
        }
      ],
      "stateMutability": "view",
      "type": "function"
    },
    {
      "inputs": [],
      "name": "terms",
      "outputs": [
        {
          "internalType": "uint256",
          "name": "vestingPrice",
          "type": "uint256"
        },
        {
          "internalType": "uint256",
          "name": "vestingPeriod",
          "type": "uint256"
        },
        {
          "internalType": "uint256",
          "name": "price",
          "type": "uint256"
        }
      ],
      "stateMutability": "view",
      "type": "function"
    },
    {
      "inputs": [],
      "name": "tokenAddress",
      "outputs": [
        {
          "internalType": "address",
          "name": "",
          "type": "address"
        }
      ],
      "stateMutability": "view",
      "type": "function"
    },
    {
      "inputs": [
        {
          "internalType": "address",
          "name": "newOwner",
          "type": "address"
        }
      ],
      "name": "transferOwnership",
      "outputs": [],
      "stateMutability": "nonpayable",
      "type": "function"
    },
    {
      "stateMutability": "payable",
      "type": "receive"
    }
  ],
  "bytecode": "0x608060405234801561001057600080fd5b50604051610c1e380380610c1e83398101604081905261002f916100d9565b600080546001600160a01b031916339081178255604051909182917f8be0079c531659141344cd1fd0a4f28419497f9722a3daafe3b4186f6b6457e0908290a350600480546001600160a01b039485166001600160a01b0319918216179091556005805493909416921691909117909155805160015560208101516002556040015160035542600755610172565b80516001600160a01b03811681146100d457600080fd5b919050565b600080600083850360a08112156100ee578384fd5b6100f7856100bd565b9350610105602086016100bd565b92506060603f1982011215610118578182fd5b50604051606081016001600160401b038111828210171561014757634e487b7160e01b83526041600452602483fd5b8060405250604085015181526060850151602082015260808501516040820152809150509250925092565b610a9d806101816000396000f3fe6080604052600436106100f75760003560e01c8063a6f2ae3a1161008a578063f2fde38b11610059578063f2fde38b146102b9578063f42958be146102d9578063f80f5dd5146102ee578063fe96973a1461032d57610106565b8063a6f2ae3a14610106578063c8514fa01461022f578063d50256251461025f578063df04c6ef1461029957610106565b806378e97925116100c657806378e979251461019f5780638da5cb5b146101c857806398d5fdca146101fa5780639d76ea581461020f57610106565b80631698755f1461010e578063350829331461012e578063715018a61461014e57806378c8cda71461016357610106565b366101065761010461034d565b005b61010461034d565b34801561011a57600080fd5b5061010461012936600461091f565b6104d6565b34801561013a57600080fd5b506101046101493660046108fe565b6105a6565b34801561015a57600080fd5b506101046105f2565b34801561016f57600080fd5b5061010461017e3660046108fe565b6001600160a01b03166000908152600660205260409020805460ff19169055565b3480156101ab57600080fd5b506101b560075481565b6040519081526020015b60405180910390f35b3480156101d457600080fd5b506000546001600160a01b03165b6040516001600160a01b0390911681526020016101bf565b34801561020657600080fd5b506101b5610666565b34801561021b57600080fd5b506004546101e2906001600160a01b031681565b34801561023b57600080fd5b5061024f61024a3660046108fe565b610680565b60405190151581526020016101bf565b34801561026b57600080fd5b5060015460025460035461027e92919083565b604080519384526020840192909252908201526060016101bf565b3480156102a557600080fd5b506101046102b4366004610968565b6106b9565b3480156102c557600080fd5b506101046102d43660046108fe565b6106f9565b3480156102e557600080fd5b5061010461072f565b3480156102fa57600080fd5b506101046103093660046108fe565b6001600160a01b03166000908152600660205260409020805460ff19166001179055565b34801561033957600080fd5b506101046103483660046109cf565b61075f565b6000620f424061035b610666565b6103659034610a3c565b61036f9190610a1c565b6004805460405163a9059cbb60e01b81523392810192909252602482018390529192506001600160a01b039091169063a9059cbb90604401602060405180830381600087803b1580156103c157600080fd5b505af11580156103d5573d6000803e3d6000fd5b505050506040513d601f19601f820116820180604052508101906103f99190610948565b50600080546040516001600160a01b039091169034908381818185875af1925050503d8060008114610447576040519150601f19603f3d011682016040523d82523d6000602084013e61044c565b606091505b50509050806104995760405162461bcd60e51b81526020600482015260146024820152732330b4b632b2103a379039b2b7321022ba3432b960611b60448201526064015b60405180910390fd5b60408051338152602081018490527fe3d4187f6ca4248660cc0ac8b8056515bac4a8132be2eca31d6d0cc170722a7e910160405180910390a15050565b6000546001600160a01b031633146105005760405162461bcd60e51b8152600401610490906109e7565b816001600160a01b031663a9059cbb6105216000546001600160a01b031690565b6040516001600160e01b031960e084901b1681526001600160a01b03909116600482015260248101849052604401602060405180830381600087803b15801561056957600080fd5b505af115801561057d573d6000803e3d6000fd5b505050506040513d601f19601f820116820180604052508101906105a19190610948565b505050565b6000546001600160a01b031633146105d05760405162461bcd60e51b8152600401610490906109e7565b600580546001600160a01b0319166001600160a01b0392909216919091179055565b6000546001600160a01b0316331461061c5760405162461bcd60e51b8152600401610490906109e7565b600080546040516001600160a01b03909116907f8be0079c531659141344cd1fd0a4f28419497f9722a3daafe3b4186f6b6457e0908390a3600080546001600160a01b0319169055565b6002546000904211610679575060015490565b5060035490565b60025460009042111561069557506001919050565b506001600160a01b031660009081526006602052604090205460ff1690565b919050565b6000546001600160a01b031633146106e35760405162461bcd60e51b8152600401610490906109e7565b8051600155602081015160025560400151600355565b6000546001600160a01b031633146107235760405162461bcd60e51b8152600401610490906109e7565b61072c81610827565b50565b6000546001600160a01b031633146107595760405162461bcd60e51b8152600401610490906109e7565b42600755565b6000546001600160a01b031633146107895760405162461bcd60e51b8152600401610490906109e7565b600080546040516001600160a01b039091169083908381818185875af1925050503d80600081146107d6576040519150601f19603f3d011682016040523d82523d6000602084013e6107db565b606091505b50509050806108235760405162461bcd60e51b81526020600482015260146024820152732330b4b632b2103a379039b2b7321022ba3432b960611b6044820152606401610490565b5050565b6001600160a01b03811661088c5760405162461bcd60e51b815260206004820152602660248201527f4f776e61626c653a206e6577206f776e657220697320746865207a65726f206160448201526564647265737360d01b6064820152608401610490565b600080546040516001600160a01b03808516939216917f8be0079c531659141344cd1fd0a4f28419497f9722a3daafe3b4186f6b6457e091a3600080546001600160a01b0319166001600160a01b0392909216919091179055565b80356001600160a01b03811681146106b457600080fd5b60006020828403121561090f578081fd5b610918826108e7565b9392505050565b60008060408385031215610931578081fd5b61093a836108e7565b946020939093013593505050565b600060208284031215610959578081fd5b81518015158114610918578182fd5b600060608284031215610979578081fd5b6040516060810181811067ffffffffffffffff821117156109a857634e487b7160e01b83526041600452602483fd5b80604052508235815260208301356020820152604083013560408201528091505092915050565b6000602082840312156109e0578081fd5b5035919050565b6020808252818101527f4f776e61626c653a2063616c6c6572206973206e6f7420746865206f776e6572604082015260600190565b600082610a3757634e487b7160e01b81526012600452602481fd5b500490565b6000816000190483118215151615610a6257634e487b7160e01b81526011600452602481fd5b50029056fea2646970667358221220dde6dbc8f28a82b5cfee85ffee12176d46449f18db4f6e749e04452b718f08b664736f6c63430008040033",
  "linkReferences": {},
  "deployedLinkReferences": {}
}